{
  "contractName": "HelloWorld",
  "abi": [
    {
      "inputs": [],
      "name": "greetings",
      "outputs": [
        {
          "internalType": "string",
          "name": "",
          "type": "string"
        }
      ],
      "stateMutability": "pure",
      "type": "function",
      "constant": true
    }
  ],
  "bytecode": "0x608060405234801561001057600080fd5b5061018c806100206000396000f3fe608060405234801561001057600080fd5b506004361061002b5760003560e01c8063acb34ce814610030575b600080fd5b61003861004e565b60405161004591906100a7565b60405180910390f35b60606040518060600160405280602d815260200161012a602d9139905090565b6000610079826100c9565b61008381856100d4565b93506100938185602086016100e5565b61009c81610118565b840191505092915050565b600060208201905081810360008301526100c1818461006e565b905092915050565b600081519050919050565b600082825260208201905092915050565b60005b838110156101035780820151818401526020810190506100e8565b83811115610112576000848401525b50505050565b6000601f19601f830116905091905056fe476f6f64204d6f726e696e672120476f6f64204c75636b20666f7220796f757220696e74657276696577202121a2646970667358221220c14452ccd779e40ab17161929dbc1a69782e69b6a4a1c47f16eb96f81602e48164736f6c63430008000033",
  "immutableReferences": {},
  "source": "pragma solidity 0.8.0;\n\ncontract HelloWorld {\n    function greetings () public pure returns (string memory)\n    {\n        return \"Good Morning! Good Luck for your interview !!\";\n    }\n}",
  "sourcePath": "/Users/erwinwijaya/VotingSystem/contracts/hello.sol",
  "compiler": {
    "name": "solc",
    "version": "0.8.0+commit.c7dfd78e.Emscripten.clang"
  },
  "schemaVersion": "3.4.3",
  "updatedAt": "2021-12-06T23:21:08.872Z",
  "networkType": "ethereum",
  "devdoc": {
    "kind": "dev",
    "methods": {},
    "version": 1
  },
  "userdoc": {
    "kind": "user",
    "methods": {},
    "version": 1
  }
}