{
  "contractName": "VotingSystem",
  "abi": [
    {
      "inputs": [
        {
          "internalType": "string[]",
          "name": "_choices",
          "type": "string[]"
        },
        {
          "internalType": "uint256",
          "name": "_timeBeforeVotingStartInSecs",
          "type": "uint256"
        },
        {
          "internalType": "uint256",
          "name": "_votingDurationInSecs",
          "type": "uint256"
        }
      ],
      "stateMutability": "nonpayable",
      "type": "constructor"
    },
    {
      "inputs": [
        {
          "internalType": "uint256",
          "name": "",
          "type": "uint256"
        }
      ],
      "name": "choices",
      "outputs": [
        {
          "internalType": "string",
          "name": "name",
          "type": "string"
        },
        {
          "internalType": "uint256",
          "name": "voteCounts",
          "type": "uint256"
        }
      ],
      "stateMutability": "view",
      "type": "function",
      "constant": true
    },
    {
      "inputs": [
        {
          "internalType": "address",
          "name": "",
          "type": "address"
        }
      ],
      "name": "voters",
      "outputs": [
        {
          "internalType": "bool",
          "name": "voted",
          "type": "bool"
        }
      ],
      "stateMutability": "view",
      "type": "function",
      "constant": true
    },
    {
      "inputs": [
        {
          "internalType": "uint256",
          "name": "_choicesIdx",
          "type": "uint256"
        }
      ],
      "name": "vote",
      "outputs": [],
      "stateMutability": "nonpayable",
      "type": "function"
    },
    {
      "inputs": [
        {
          "internalType": "uint256",
          "name": "_choicesIdx",
          "type": "uint256"
        }
      ],
      "name": "getNumberOfVote",
      "outputs": [
        {
          "internalType": "uint256",
          "name": "",
          "type": "uint256"
        }
      ],
      "stateMutability": "nonpayable",
      "type": "function"
    },
    {
      "inputs": [],
      "name": "getRewardedAddress",
      "outputs": [
        {
          "internalType": "address",
          "name": "",
          "type": "address"
        }
      ],
      "stateMutability": "view",
      "type": "function",
      "constant": true
    },
    {
      "inputs": [],
      "name": "deposit",
      "outputs": [],
      "stateMutability": "payable",
      "type": "function",
      "payable": true
    },
    {
      "inputs": [],
      "name": "rewardRandomVoterFromHighestVote",
      "outputs": [],
      "stateMutability": "nonpayable",
      "type": "function"
    },
    {
      "inputs": [],
      "name": "findHighestVoteIdx",
      "outputs": [
        {
          "internalType": "uint256",
          "name": "",
          "type": "uint256"
        }
      ],
      "stateMutability": "view",
      "type": "function",
      "constant": true
    },
    {
      "inputs": [],
      "name": "getChoices",
      "outputs": [
        {
          "components": [
            {
              "internalType": "string",
              "name": "name",
              "type": "string"
            },
            {
              "internalType": "uint256",
              "name": "voteCounts",
              "type": "uint256"
            },
            {
              "internalType": "address[]",
              "name": "voters",
              "type": "address[]"
            }
          ],
          "internalType": "struct VotingSystem.Choice[]",
          "name": "",
          "type": "tuple[]"
        }
      ],
      "stateMutability": "view",
      "type": "function",
      "constant": true
    },
    {
      "inputs": [],
      "name": "getVotingState",
      "outputs": [
        {
          "internalType": "string",
          "name": "",
          "type": "string"
        }
      ],
      "stateMutability": "nonpayable",
      "type": "function"
    },
    {
      "inputs": [],
      "name": "getBlockTimeStamp",
      "outputs": [
        {
          "internalType": "uint256",
          "name": "",
          "type": "uint256"
        }
      ],
      "stateMutability": "nonpayable",
      "type": "function"
    },
    {
      "inputs": [],
      "name": "getBlockTimeStamp2",
      "outputs": [
        {
          "internalType": "uint256",
          "name": "",
          "type": "uint256"
        }
      ],
      "stateMutability": "view",
      "type": "function",
      "constant": true
    }
  ],
  "bytecode": "0x60806040526000600460146101000a81548160ff0219169083151502179055503480156200002c57600080fd5b5060405162001d4338038062001d43833981810160405281019062000052919062000457565b60005b83518110156200014b5762000069620001dc565b848281518110620000a3577f4e487b7100000000000000000000000000000000000000000000000000000000600052603260045260246000fd5b6020026020010151816000018190525060008160200181815250506002819080600181540180825580915050600190039060005260206000209060030201600090919091909150600082015181600001908051906020019062000108929190620001fd565b50602082015181600101556040820151816002019080519060200190620001319291906200028e565b50505050808062000142906200062f565b91505062000055565b5081426200015a91906200055c565b600081905550806000546200017091906200055c565b6001819055506000600460146101000a81548160ff0219169083151502179055506000600460006101000a81548173ffffffffffffffffffffffffffffffffffffffff021916908373ffffffffffffffffffffffffffffffffffffffff16021790555050505062000724565b60405180606001604052806060815260200160008152602001606081525090565b8280546200020b90620005f9565b90600052602060002090601f0160209004810192826200022f57600085556200027b565b82601f106200024a57805160ff19168380011785556200027b565b828001600101855582156200027b579182015b828111156200027a5782518255916020019190600101906200025d565b5b5090506200028a91906200031d565b5090565b8280548282559060005260206000209081019282156200030a579160200282015b82811115620003095782518260006101000a81548173ffffffffffffffffffffffffffffffffffffffff021916908373ffffffffffffffffffffffffffffffffffffffff16021790555091602001919060010190620002af565b5b5090506200031991906200031d565b5090565b5b80821115620003385760008160009055506001016200031e565b5090565b6000620003536200034d84620004fa565b620004c6565b9050808382526020820190508260005b858110156200039757815185016200037c888262000413565b84526020840193506020830192505060018101905062000363565b5050509392505050565b6000620003b8620003b28462000529565b620004c6565b905082815260208101848484011115620003d157600080fd5b620003de848285620005c3565b509392505050565b600082601f830112620003f857600080fd5b81516200040a8482602086016200033c565b91505092915050565b600082601f8301126200042557600080fd5b815162000437848260208601620003a1565b91505092915050565b60008151905062000451816200070a565b92915050565b6000806000606084860312156200046d57600080fd5b600084015167ffffffffffffffff8111156200048857600080fd5b6200049686828701620003e6565b9350506020620004a98682870162000440565b9250506040620004bc8682870162000440565b9150509250925092565b6000604051905081810181811067ffffffffffffffff82111715620004f057620004ef620006db565b5b8060405250919050565b600067ffffffffffffffff821115620005185762000517620006db565b5b602082029050602081019050919050565b600067ffffffffffffffff821115620005475762000546620006db565b5b601f19601f8301169050602081019050919050565b60006200056982620005b9565b91506200057683620005b9565b9250827fffffffffffffffffffffffffffffffffffffffffffffffffffffffffffffffff03821115620005ae57620005ad6200067d565b5b828201905092915050565b6000819050919050565b60005b83811015620005e3578082015181840152602081019050620005c6565b83811115620005f3576000848401525b50505050565b600060028204905060018216806200061257607f821691505b60208210811415620006295762000628620006ac565b5b50919050565b60006200063c82620005b9565b91507fffffffffffffffffffffffffffffffffffffffffffffffffffffffffffffffff8214156200067257620006716200067d565b5b600182019050919050565b7f4e487b7100000000000000000000000000000000000000000000000000000000600052601160045260246000fd5b7f4e487b7100000000000000000000000000000000000000000000000000000000600052602260045260246000fd5b7f4e487b7100000000000000000000000000000000000000000000000000000000600052604160045260246000fd5b6200071581620005b9565b81146200072157600080fd5b50565b61160f80620007346000396000f3fe6080604052600436106100a75760003560e01c8063acb7395911610064578063acb73959146101aa578063ca49a543146101e7578063d0e30db014610212578063e9c2e17f1461021c578063f6fd7fde14610247578063f8c28aa814610285576100a7565b80630121b93f146100ac57806312db1ac4146100d55780633d995621146101005780637f2930e41461012b57806398c81bbf14610142578063a3ec138d1461016d575b600080fd5b3480156100b857600080fd5b506100d360048036038101906100ce9190610d64565b6102b0565b005b3480156100e157600080fd5b506100ea610598565b6040516100f791906112cb565b60405180910390f35b34801561010c57600080fd5b506101156105a0565b60405161012291906112cb565b60405180910390f35b34801561013757600080fd5b50610140610678565b005b34801561014e57600080fd5b506101576108ea565b604051610164919061119c565b60405180910390f35b34801561017957600080fd5b50610194600480360381019061018f9190610d3b565b610a73565b6040516101a191906111be565b60405180910390f35b3480156101b657600080fd5b506101d160048036038101906101cc9190610d64565b610a9e565b6040516101de91906112cb565b60405180910390f35b3480156101f357600080fd5b506101fc610b55565b60405161020991906112cb565b60405180910390f35b61021a610b5d565b005b34801561022857600080fd5b50610231610b5f565b60405161023e91906111d9565b60405180910390f35b34801561025357600080fd5b5061026e60048036038101906102699190610d64565b610c2b565b60405161027c9291906111fb565b60405180910390f35b34801561029157600080fd5b5061029a610ce7565b6040516102a79190611181565b60405180910390f35b6000544210156102f5576040517f08c379a00000000000000000000000000000000000000000000000000000000081526004016102ec906112ab565b60405180910390fd5b6102fd610678565b6001544210610341576040517f08c379a00000000000000000000000000000000000000000000000000000000081526004016103389061128b565b60405180910390fd5b60001515600360003373ffffffffffffffffffffffffffffffffffffffff1673ffffffffffffffffffffffffffffffffffffffff16815260200190815260200160002060000160009054906101000a900460ff161515146103d7576040517f08c379a00000000000000000000000000000000000000000000000000000000081526004016103ce9061122b565b60405180910390fd5b600081101580156103ec575060028054905081105b61042b576040517f08c379a00000000000000000000000000000000000000000000000000000000081526004016104229061124b565b60405180910390fd5b6001600360003373ffffffffffffffffffffffffffffffffffffffff1673ffffffffffffffffffffffffffffffffffffffff16815260200190815260200160002060000160006101000a81548160ff0219169083151502179055506001600282815481106104c2577f4e487b7100000000000000000000000000000000000000000000000000000000600052603260045260246000fd5b906000526020600020906003020160010160008282546104e29190611390565b9250508190555060028181548110610523577f4e487b7100000000000000000000000000000000000000000000000000000000600052603260045260246000fd5b9060005260206000209060030201600201339080600181540180825580915050600190039060005260206000200160009091909190916101000a81548173ffffffffffffffffffffffffffffffffffffffff021916908373ffffffffffffffffffffffffffffffffffffffff16021790555050565b600042905090565b600080600090506000600190505b60028054905081101561067057600282815481106105f5577f4e487b7100000000000000000000000000000000000000000000000000000000600052603260045260246000fd5b90600052602060002090600302016001015460028281548110610641577f4e487b7100000000000000000000000000000000000000000000000000000000600052603260045260246000fd5b906000526020600020906003020160010154111561065d578091505b808061066890611493565b9150506105ae565b508091505090565b600154421180156106965750600460149054906101000a900460ff16155b156108e8576001600460146101000a81548160ff02191690831515021790555060006106c06105a0565b90506000600282815481106106fe577f4e487b7100000000000000000000000000000000000000000000000000000000600052603260045260246000fd5b9060005260206000209060030201600201805490504261071e91906114dc565b90506002828154811061075a577f4e487b7100000000000000000000000000000000000000000000000000000000600052603260045260246000fd5b906000526020600020906003020160020181815481106107a3577f4e487b7100000000000000000000000000000000000000000000000000000000600052603260045260246000fd5b9060005260206000200160009054906101000a900473ffffffffffffffffffffffffffffffffffffffff16600460006101000a81548173ffffffffffffffffffffffffffffffffffffffff021916908373ffffffffffffffffffffffffffffffffffffffff1602179055506000600460009054906101000a900473ffffffffffffffffffffffffffffffffffffffff1673ffffffffffffffffffffffffffffffffffffffff1667016345785d8a000060405161085e9061116c565b60006040518083038185875af1925050503d806000811461089b576040519150601f19603f3d011682016040523d82523d6000602084013e6108a0565b606091505b50509050806108e4576040517f08c379a00000000000000000000000000000000000000000000000000000000081526004016108db9061126b565b60405180910390fd5b5050505b565b60606002805480602002602001604051908101604052809291908181526020016000905b82821015610a6a578382906000526020600020906003020160405180606001604052908160008201805461094190611461565b80601f016020809104026020016040519081016040528092919081815260200182805461096d90611461565b80156109ba5780601f1061098f576101008083540402835291602001916109ba565b820191906000526020600020905b81548152906001019060200180831161099d57829003601f168201915b505050505081526020016001820154815260200160028201805480602002602001604051908101604052809291908181526020018280548015610a5257602002820191906000526020600020905b8160009054906101000a900473ffffffffffffffffffffffffffffffffffffffff1673ffffffffffffffffffffffffffffffffffffffff1681526020019060010190808311610a08575b5050505050815250508152602001906001019061090e565b50505050905090565b60036020528060005260406000206000915090508060000160009054906101000a900460ff16905081565b6000610aa8610678565b60008210158015610abd575060028054905082105b610afc576040517f08c379a0000000000000000000000000000000000000000000000000000000008152600401610af39061124b565b60405180910390fd5b600060028381548110610b38577f4e487b7100000000000000000000000000000000000000000000000000000000600052603260045260246000fd5b906000526020600020906003020160010154905080915050919050565b600042905090565b565b6060600054421015610ba8576040518060400160405280601681526020017f566f74696e6720686173206e6f742073746172746564000000000000000000008152509050610c28565b600154421015610bef576040518060400160405280601281526020017f566f74696e6720696e2070726f677265737300000000000000000000000000008152509050610c28565b6040518060400160405280601081526020017f566f74696e672068617320656e6465640000000000000000000000000000000081525090505b90565b60028181548110610c3b57600080fd5b9060005260206000209060030201600091509050806000018054610c5e90611461565b80601f0160208091040260200160405190810160405280929190818152602001828054610c8a90611461565b8015610cd75780601f10610cac57610100808354040283529160200191610cd7565b820191906000526020600020905b815481529060010190602001808311610cba57829003601f168201915b5050505050908060010154905082565b6000600460009054906101000a900473ffffffffffffffffffffffffffffffffffffffff16905090565b600081359050610d20816115ab565b92915050565b600081359050610d35816115c2565b92915050565b600060208284031215610d4d57600080fd5b6000610d5b84828501610d11565b91505092915050565b600060208284031215610d7657600080fd5b6000610d8484828501610d26565b91505092915050565b6000610d998383610db9565b60208301905092915050565b6000610db183836110f7565b905092915050565b610dc2816113e6565b82525050565b610dd1816113e6565b82525050565b6000610de282611306565b610dec8185611341565b9350610df7836112e6565b8060005b83811015610e28578151610e0f8882610d8d565b9750610e1a83611327565b925050600181019050610dfb565b5085935050505092915050565b6000610e4082611311565b610e4a8185611352565b935083602082028501610e5c856112f6565b8060005b85811015610e985784840389528151610e798582610da5565b9450610e8483611334565b925060208a01995050600181019050610e60565b50829750879550505050505092915050565b610eb3816113f8565b82525050565b6000610ec48261131c565b610ece818561136e565b9350610ede81856020860161142e565b610ee78161159a565b840191505092915050565b6000610efd8261131c565b610f07818561137f565b9350610f1781856020860161142e565b610f208161159a565b840191505092915050565b6000610f3860298361137f565b91507f566f74657220616c72656164792075736564206869732f68657220726967687460008301527f20746f20766f74652e00000000000000000000000000000000000000000000006020830152604082019050919050565b6000610f9e602e8361137f565b91507f766f7465206973206f757473696465207468652072616e6765206f662061766160008301527f696c61626c652063686f696365730000000000000000000000000000000000006020830152604082019050919050565b6000611004600083611363565b9150600082019050919050565b600061101e60158361137f565b91507f52657761726420302e3120455448204661696c656400000000000000000000006000830152602082019050919050565b600061105e60178361137f565b91507f566f74696e6720706572696f642068617320656e6465640000000000000000006000830152602082019050919050565b600061109e60218361137f565b91507f566f74696e6720706572696f6420686173206e6f74207374617274656420796560008301527f74000000000000000000000000000000000000000000000000000000000000006020830152604082019050919050565b600060608301600083015184820360008601526111148282610eb9565b9150506020830151611129602086018261114e565b50604083015184820360408601526111418282610dd7565b9150508091505092915050565b61115781611424565b82525050565b61116681611424565b82525050565b600061117782610ff7565b9150819050919050565b60006020820190506111966000830184610dc8565b92915050565b600060208201905081810360008301526111b68184610e35565b905092915050565b60006020820190506111d36000830184610eaa565b92915050565b600060208201905081810360008301526111f38184610ef2565b905092915050565b600060408201905081810360008301526112158185610ef2565b9050611224602083018461115d565b9392505050565b6000602082019050818103600083015261124481610f2b565b9050919050565b6000602082019050818103600083015261126481610f91565b9050919050565b6000602082019050818103600083015261128481611011565b9050919050565b600060208201905081810360008301526112a481611051565b9050919050565b600060208201905081810360008301526112c481611091565b9050919050565b60006020820190506112e0600083018461115d565b92915050565b6000819050602082019050919050565b6000819050602082019050919050565b600081519050919050565b600081519050919050565b600081519050919050565b6000602082019050919050565b6000602082019050919050565b600082825260208201905092915050565b600082825260208201905092915050565b600081905092915050565b600082825260208201905092915050565b600082825260208201905092915050565b600061139b82611424565b91506113a683611424565b9250827fffffffffffffffffffffffffffffffffffffffffffffffffffffffffffffffff038211156113db576113da61150d565b5b828201905092915050565b60006113f182611404565b9050919050565b60008115159050919050565b600073ffffffffffffffffffffffffffffffffffffffff82169050919050565b6000819050919050565b60005b8381101561144c578082015181840152602081019050611431565b8381111561145b576000848401525b50505050565b6000600282049050600182168061147957607f821691505b6020821081141561148d5761148c61156b565b5b50919050565b600061149e82611424565b91507fffffffffffffffffffffffffffffffffffffffffffffffffffffffffffffffff8214156114d1576114d061150d565b5b600182019050919050565b60006114e782611424565b91506114f283611424565b9250826115025761150161153c565b5b828206905092915050565b7f4e487b7100000000000000000000000000000000000000000000000000000000600052601160045260246000fd5b7f4e487b7100000000000000000000000000000000000000000000000000000000600052601260045260246000fd5b7f4e487b7100000000000000000000000000000000000000000000000000000000600052602260045260246000fd5b6000601f19601f8301169050919050565b6115b4816113e6565b81146115bf57600080fd5b50565b6115cb81611424565b81146115d657600080fd5b5056fea2646970667358221220f96aaed2df09de02d4efb3ac05c4d789bec3fa48437d0f753d454eadc70511de64736f6c63430008000033",
  "immutableReferences": {},
  "source": "pragma solidity 0.8.0;\n\ncontract VotingSystem {\n\n    struct Choice {\n        string name;\n        uint voteCounts;\n        address[] voters;\n    }\n\n    struct Voter {\n        bool voted;\n    }\n\n    uint256 startTime; //how many secs after contract is deployed before voting starts\n    uint256 endTime; //counts after voting has started\n\n    Choice[] public choices; //store voters input\n    mapping (address => Voter) public voters;\n\n    address rewarded_address;\n    bool voting_period_ended = false;\n\n    modifier allowedToVote\n    {\n        require (block.timestamp >= startTime, \"Voting period has not started yet\");\n        rewardRandomVoterFromHighestVote();\n        require (block.timestamp < endTime, \"Voting period has ended\");\n        require (voters[msg.sender].voted == false, \"Voter already used his/her right to vote.\");\n        _;\n    }\n\n    constructor(string[] memory _choices, uint256 _timeBeforeVotingStartInSecs, uint256 _votingDurationInSecs)\n    {\n        for (uint idx = 0; idx < _choices.length; idx++)\n        {\n            Choice memory init;\n            init.name = _choices[idx];\n            init.voteCounts = 0;\n            choices.push(init);\n        }\n        startTime = block.timestamp + _timeBeforeVotingStartInSecs;\n        endTime = startTime + _votingDurationInSecs;\n        voting_period_ended = false;\n        rewarded_address = address(0);\n    }\n\n    function vote (uint _choicesIdx) public allowedToVote\n    {\n        require(_choicesIdx >= 0 && _choicesIdx < choices.length, \"vote is outside the range of available choices\");\n        voters[msg.sender].voted = true;\n        choices[_choicesIdx].voteCounts += 1;\n        choices[_choicesIdx].voters.push(msg.sender);\n    }\n\n    function getNumberOfVote (uint _choicesIdx) public returns (uint)\n    {\n        rewardRandomVoterFromHighestVote();\n        require(_choicesIdx >= 0 && _choicesIdx < choices.length, \"vote is outside the range of available choices\");\n        uint counts = choices[_choicesIdx].voteCounts;\n        return counts;\n    }\n\n    function getRewardedAddress() public view returns (address) {\n        return rewarded_address;\n    }\n\n    function deposit () public payable\n    {\n\n    }\n\n    function rewardRandomVoterFromHighestVote () public\n    {\n        if (block.timestamp > endTime && !voting_period_ended) \n        { \n            voting_period_ended = true;\n            uint winningChoice = findHighestVoteIdx();\n            uint randomVoterIdx = block.timestamp % choices[winningChoice].voters.length; \n            rewarded_address = choices[winningChoice].voters[randomVoterIdx];\n            (bool success, ) = rewarded_address.call{value:0.1 ether}(\"\");\n            require( success, \"Reward 0.1 ETH Failed\");\n        }\n    }\n\n    function findHighestVoteIdx() public view returns (uint)\n    {\n        uint highestVoteIdx = 0;\n        for (uint idx = 1; idx < choices.length; idx++) {\n            if (choices[idx].voteCounts > choices[highestVoteIdx].voteCounts) \n            {\n                highestVoteIdx = idx;\n            }\n        }\n        return highestVoteIdx;\n    }\n\n    function getChoices () public view returns (Choice[] memory)\n    {\n        return choices;\n    }\n\n    function getVotingState() public returns (string memory)\n    {\n        if (block.timestamp < startTime)\n        {\n            return \"Voting has not started\";\n        }\n        else if (block.timestamp < endTime)\n        {\n            return \"Voting in progress\";\n        }\n        else \n        {\n            return \"Voting has ended\";\n        }\n    }\n\n    function getBlockTimeStamp() public returns (uint)\n    {\n        return block.timestamp;\n    }\n\n    function getBlockTimeStamp2() public view returns (uint)\n    {\n        return block.timestamp;\n    }\n}",
  "sourcePath": "/Users/erwinwijaya/VotingSystem/contracts/VotingSystem.sol",
  "compiler": {
    "name": "solc",
    "version": "0.8.0+commit.c7dfd78e.Emscripten.clang"
  },
  "schemaVersion": "3.4.3",
  "updatedAt": "2021-12-08T01:30:39.146Z",
  "networkType": "ethereum",
  "devdoc": {
    "kind": "dev",
    "methods": {},
    "version": 1
  },
  "userdoc": {
    "kind": "user",
    "methods": {},
    "version": 1
  }
}