{
  "contractName": "VotingSystem",
  "abi": [
    {
      "inputs": [
        {
          "internalType": "string[]",
          "name": "_choices",
          "type": "string[]"
        },
        {
          "internalType": "uint256",
          "name": "_timeBeforeVotingStartInSecs",
          "type": "uint256"
        },
        {
          "internalType": "uint256",
          "name": "_votingDurationInSecs",
          "type": "uint256"
        }
      ],
      "stateMutability": "nonpayable",
      "type": "constructor"
    },
    {
      "inputs": [
        {
          "internalType": "uint256",
          "name": "",
          "type": "uint256"
        }
      ],
      "name": "choices",
      "outputs": [
        {
          "internalType": "string",
          "name": "name",
          "type": "string"
        },
        {
          "internalType": "uint256",
          "name": "voteCounts",
          "type": "uint256"
        },
        {
          "internalType": "uint256",
          "name": "votersCounts",
          "type": "uint256"
        }
      ],
      "stateMutability": "view",
      "type": "function",
      "constant": true
    },
    {
      "inputs": [
        {
          "internalType": "address",
          "name": "",
          "type": "address"
        }
      ],
      "name": "voters",
      "outputs": [
        {
          "internalType": "bool",
          "name": "voted",
          "type": "bool"
        }
      ],
      "stateMutability": "view",
      "type": "function",
      "constant": true
    },
    {
      "inputs": [
        {
          "internalType": "string[]",
          "name": "_choices",
          "type": "string[]"
        },
        {
          "internalType": "uint256",
          "name": "_timeBeforeVotingStartInSecs",
          "type": "uint256"
        },
        {
          "internalType": "uint256",
          "name": "_votingDurationInSecs",
          "type": "uint256"
        }
      ],
      "name": "createNewElection",
      "outputs": [],
      "stateMutability": "payable",
      "type": "function",
      "payable": true
    },
    {
      "inputs": [
        {
          "internalType": "uint256",
          "name": "_choicesIdx",
          "type": "uint256"
        }
      ],
      "name": "vote",
      "outputs": [],
      "stateMutability": "nonpayable",
      "type": "function"
    },
    {
      "inputs": [
        {
          "internalType": "uint256",
          "name": "_choicesIdx",
          "type": "uint256"
        }
      ],
      "name": "getNumberOfVote",
      "outputs": [
        {
          "internalType": "uint256",
          "name": "",
          "type": "uint256"
        }
      ],
      "stateMutability": "view",
      "type": "function",
      "constant": true
    },
    {
      "inputs": [],
      "name": "getRewardedAddress",
      "outputs": [
        {
          "internalType": "address",
          "name": "",
          "type": "address"
        }
      ],
      "stateMutability": "view",
      "type": "function",
      "constant": true
    },
    {
      "inputs": [],
      "name": "deposit",
      "outputs": [],
      "stateMutability": "payable",
      "type": "function",
      "payable": true
    },
    {
      "inputs": [],
      "name": "rewardRandomVoterFromHighestVote",
      "outputs": [],
      "stateMutability": "nonpayable",
      "type": "function"
    },
    {
      "inputs": [],
      "name": "findHighestVoteIdx",
      "outputs": [
        {
          "internalType": "uint256",
          "name": "",
          "type": "uint256"
        }
      ],
      "stateMutability": "view",
      "type": "function",
      "constant": true
    },
    {
      "inputs": [],
      "name": "getChoices",
      "outputs": [
        {
          "components": [
            {
              "internalType": "string",
              "name": "name",
              "type": "string"
            },
            {
              "internalType": "uint256",
              "name": "voteCounts",
              "type": "uint256"
            },
            {
              "internalType": "address[]",
              "name": "voters",
              "type": "address[]"
            },
            {
              "internalType": "uint256",
              "name": "votersCounts",
              "type": "uint256"
            }
          ],
          "internalType": "struct VotingSystem.Choice[]",
          "name": "",
          "type": "tuple[]"
        }
      ],
      "stateMutability": "view",
      "type": "function",
      "constant": true
    },
    {
      "inputs": [],
      "name": "getVotingState",
      "outputs": [
        {
          "internalType": "string",
          "name": "",
          "type": "string"
        }
      ],
      "stateMutability": "nonpayable",
      "type": "function"
    },
    {
      "inputs": [],
      "name": "getBlockTimeStamp",
      "outputs": [
        {
          "internalType": "uint256",
          "name": "",
          "type": "uint256"
        }
      ],
      "stateMutability": "nonpayable",
      "type": "function"
    },
    {
      "inputs": [],
      "name": "getBlockTimeStamp2",
      "outputs": [
        {
          "internalType": "uint256",
          "name": "",
          "type": "uint256"
        }
      ],
      "stateMutability": "view",
      "type": "function",
      "constant": true
    }
  ],
  "bytecode": "0x60806040526000600660006101000a81548160ff02191690831515021790555060006007553480156200003157600080fd5b506040516200279938038062002799833981810160405281019062000057919062000492565b60005b83518110156200017f576200006e62000210565b848281518110620000a8577f4e487b7100000000000000000000000000000000000000000000000000000000600052603260045260246000fd5b6020026020010151816000018190525060008160200181815250506000816060018181525050600281908060018154018082558091505060019003906000526020600020906004020160009091909190915060008201518160000190805190602001906200011892919062000238565b5060208201518160010155604082015181600201908051906020019062000141929190620002c9565b506060820151816003015550506007600081548092919062000163906200066a565b919050555050808062000176906200066a565b9150506200005a565b5081426200018e919062000597565b60008190555080600054620001a4919062000597565b6001819055506000600660006101000a81548160ff0219169083151502179055506000600460006101000a81548173ffffffffffffffffffffffffffffffffffffffff021916908373ffffffffffffffffffffffffffffffffffffffff1602179055505050506200075f565b6040518060800160405280606081526020016000815260200160608152602001600081525090565b828054620002469062000634565b90600052602060002090601f0160209004810192826200026a5760008555620002b6565b82601f106200028557805160ff1916838001178555620002b6565b82800160010185558215620002b6579182015b82811115620002b557825182559160200191906001019062000298565b5b509050620002c5919062000358565b5090565b82805482825590600052602060002090810192821562000345579160200282015b82811115620003445782518260006101000a81548173ffffffffffffffffffffffffffffffffffffffff021916908373ffffffffffffffffffffffffffffffffffffffff16021790555091602001919060010190620002ea565b5b50905062000354919062000358565b5090565b5b808211156200037357600081600090555060010162000359565b5090565b60006200038e620003888462000535565b62000501565b9050808382526020820190508260005b85811015620003d25781518501620003b788826200044e565b8452602084019350602083019250506001810190506200039e565b5050509392505050565b6000620003f3620003ed8462000564565b62000501565b9050828152602081018484840111156200040c57600080fd5b62000419848285620005fe565b509392505050565b600082601f8301126200043357600080fd5b81516200044584826020860162000377565b91505092915050565b600082601f8301126200046057600080fd5b815162000472848260208601620003dc565b91505092915050565b6000815190506200048c8162000745565b92915050565b600080600060608486031215620004a857600080fd5b600084015167ffffffffffffffff811115620004c357600080fd5b620004d18682870162000421565b9350506020620004e4868287016200047b565b9250506040620004f7868287016200047b565b9150509250925092565b6000604051905081810181811067ffffffffffffffff821117156200052b576200052a62000716565b5b8060405250919050565b600067ffffffffffffffff82111562000553576200055262000716565b5b602082029050602081019050919050565b600067ffffffffffffffff82111562000582576200058162000716565b5b601f19601f8301169050602081019050919050565b6000620005a482620005f4565b9150620005b183620005f4565b9250827fffffffffffffffffffffffffffffffffffffffffffffffffffffffffffffffff03821115620005e957620005e8620006b8565b5b828201905092915050565b6000819050919050565b60005b838110156200061e57808201518184015260208101905062000601565b838111156200062e576000848401525b50505050565b600060028204905060018216806200064d57607f821691505b60208210811415620006645762000663620006e7565b5b50919050565b60006200067782620005f4565b91507fffffffffffffffffffffffffffffffffffffffffffffffffffffffffffffffff821415620006ad57620006ac620006b8565b5b600182019050919050565b7f4e487b7100000000000000000000000000000000000000000000000000000000600052601160045260246000fd5b7f4e487b7100000000000000000000000000000000000000000000000000000000600052602260045260246000fd5b7f4e487b7100000000000000000000000000000000000000000000000000000000600052604160045260246000fd5b6200075081620005f4565b81146200075c57600080fd5b50565b61202a806200076f6000396000f3fe6080604052600436106100c25760003560e01c8063a3ec138d1161007f578063d0e30db011610059578063d0e30db014610249578063e9c2e17f14610253578063f6fd7fde1461027e578063f8c28aa8146102bd576100c2565b8063a3ec138d146101a4578063acb73959146101e1578063ca49a5431461021e576100c2565b80630121b93f146100c757806312db1ac4146100f057806318afaf631461011b5780633d995621146101375780637f2930e41461016257806398c81bbf14610179575b600080fd5b3480156100d357600080fd5b506100ee60048036038101906100e991906115ad565b6102e8565b005b3480156100fc57600080fd5b50610105610849565b6040516101129190611c1b565b60405180910390f35b61013560048036038101906101309190611546565b610851565b005b34801561014357600080fd5b5061014c610b40565b6040516101599190611c1b565b60405180910390f35b34801561016e57600080fd5b50610177610c15565b005b34801561018557600080fd5b5061018e610e84565b60405161019b9190611a9e565b60405180910390f35b3480156101b057600080fd5b506101cb60048036038101906101c6919061151d565b611017565b6040516101d89190611ac0565b60405180910390f35b3480156101ed57600080fd5b50610208600480360381019061020391906115ad565b611042565b6040516102159190611c1b565b60405180910390f35b34801561022a57600080fd5b506102336110ed565b6040516102409190611c1b565b60405180910390f35b6102516110f5565b005b34801561025f57600080fd5b506102686110f7565b6040516102759190611adb565b60405180910390f35b34801561028a57600080fd5b506102a560048036038101906102a091906115ad565b6111c3565b6040516102b493929190611afd565b60405180910390f35b3480156102c957600080fd5b506102d2611285565b6040516102df9190611a83565b60405180910390f35b60005442101561032d576040517f08c379a000000000000000000000000000000000000000000000000000000000815260040161032490611bfb565b60405180910390fd5b6001544210610371576040517f08c379a000000000000000000000000000000000000000000000000000000000815260040161036890611bdb565b60405180910390fd5b60001515600360003373ffffffffffffffffffffffffffffffffffffffff1673ffffffffffffffffffffffffffffffffffffffff16815260200190815260200160002060000160009054906101000a900460ff16151514610407576040517f08c379a00000000000000000000000000000000000000000000000000000000081526004016103fe90611b7b565b60405180910390fd5b60008110158015610419575060075481105b610458576040517f08c379a000000000000000000000000000000000000000000000000000000000815260040161044f90611b9b565b60405180910390fd5b6001600360003373ffffffffffffffffffffffffffffffffffffffff1673ffffffffffffffffffffffffffffffffffffffff16815260200190815260200160002060000160006101000a81548160ff0219169083151502179055506001600282815481106104ef577f4e487b7100000000000000000000000000000000000000000000000000000000600052603260045260246000fd5b9060005260206000209060040201600101600082825461050f9190611d6d565b9250508190555060028181548110610550577f4e487b7100000000000000000000000000000000000000000000000000000000600052603260045260246000fd5b9060005260206000209060040201600201805490506002828154811061059f577f4e487b7100000000000000000000000000000000000000000000000000000000600052603260045260246000fd5b90600052602060002090600402016003015410156106d35733600282815481106105f2577f4e487b7100000000000000000000000000000000000000000000000000000000600052603260045260246000fd5b90600052602060002090600402016002016002838154811061063d577f4e487b7100000000000000000000000000000000000000000000000000000000600052603260045260246000fd5b90600052602060002090600402016003015481548110610686577f4e487b7100000000000000000000000000000000000000000000000000000000600052603260045260246000fd5b9060005260206000200160006101000a81548173ffffffffffffffffffffffffffffffffffffffff021916908373ffffffffffffffffffffffffffffffffffffffff160217905550610780565b6002818154811061070d577f4e487b7100000000000000000000000000000000000000000000000000000000600052603260045260246000fd5b9060005260206000209060040201600201339080600181540180825580915050600190039060005260206000200160009091909190916101000a81548173ffffffffffffffffffffffffffffffffffffffff021916908373ffffffffffffffffffffffffffffffffffffffff1602179055505b6001600282815481106107bc577f4e487b7100000000000000000000000000000000000000000000000000000000600052603260045260246000fd5b906000526020600020906004020160030160008282546107dc9190611d6d565b925050819055506005339080600181540180825580915050600190039060005260206000200160009091909190916101000a81548173ffffffffffffffffffffffffffffffffffffffff021916908373ffffffffffffffffffffffffffffffffffffffff16021790555050565b600042905090565b67016345785d8a0000341161089b576040517f08c379a000000000000000000000000000000000000000000000000000000000815260040161089290611b3b565b60405180910390fd5b60015442116108df576040517f08c379a00000000000000000000000000000000000000000000000000000000081526004016108d690611b5b565b60405180910390fd5b6108e7610c15565b600060078190555060005b8351811015610ab7576109036112af565b84828151811061093c577f4e487b7100000000000000000000000000000000000000000000000000000000600052603260045260246000fd5b6020026020010151816000018190525060008160200181815250506000816060018181525050600280549050821015610a0e5780600283815481106109aa577f4e487b7100000000000000000000000000000000000000000000000000000000600052603260045260246000fd5b906000526020600020906004020160008201518160000190805190602001906109d49291906112d7565b506020820151816001015560408201518160020190805190602001906109fb92919061135d565b5060608201518160030155905050610a8b565b60028190806001815401808255809150506001900390600052602060002090600402016000909190919091506000820151816000019080519060200190610a569291906112d7565b50602082015181600101556040820151816002019080519060200190610a7d92919061135d565b506060820151816003015550505b60076000815480929190610a9e90611e7f565b9190505550508080610aaf90611e7f565b9150506108f2565b508142610ac49190611d6d565b60008190555080600054610ad89190611d6d565b6001819055506000600660006101000a81548160ff0219169083151502179055506000600460006101000a81548173ffffffffffffffffffffffffffffffffffffffff021916908373ffffffffffffffffffffffffffffffffffffffff160217905550505050565b600080600090506000600190505b600754811015610c0d5760028281548110610b92577f4e487b7100000000000000000000000000000000000000000000000000000000600052603260045260246000fd5b90600052602060002090600402016001015460028281548110610bde577f4e487b7100000000000000000000000000000000000000000000000000000000600052603260045260246000fd5b9060005260206000209060040201600101541115610bfa578091505b8080610c0590611e7f565b915050610b4e565b508091505090565b60015442118015610c335750600660009054906101000a900460ff16155b15610e82576001600660006101000a81548160ff0219169083151502179055506000610c5d610b40565b9050600060028281548110610c9b577f4e487b7100000000000000000000000000000000000000000000000000000000600052603260045260246000fd5b90600052602060002090600402016003015442610cb89190611ec8565b905060028281548110610cf4577f4e487b7100000000000000000000000000000000000000000000000000000000600052603260045260246000fd5b90600052602060002090600402016002018181548110610d3d577f4e487b7100000000000000000000000000000000000000000000000000000000600052603260045260246000fd5b9060005260206000200160009054906101000a900473ffffffffffffffffffffffffffffffffffffffff16600460006101000a81548173ffffffffffffffffffffffffffffffffffffffff021916908373ffffffffffffffffffffffffffffffffffffffff1602179055506000600460009054906101000a900473ffffffffffffffffffffffffffffffffffffffff1673ffffffffffffffffffffffffffffffffffffffff1667016345785d8a0000604051610df890611a6e565b60006040518083038185875af1925050503d8060008114610e35576040519150601f19603f3d011682016040523d82523d6000602084013e610e3a565b606091505b5050905080610e7e576040517f08c379a0000000000000000000000000000000000000000000000000000000008152600401610e7590611bbb565b60405180910390fd5b5050505b565b60606002805480602002602001604051908101604052809291908181526020016000905b8282101561100e5783829060005260206000209060040201604051806080016040529081600082018054610edb90611e4d565b80601f0160208091040260200160405190810160405280929190818152602001828054610f0790611e4d565b8015610f545780601f10610f2957610100808354040283529160200191610f54565b820191906000526020600020905b815481529060010190602001808311610f3757829003601f168201915b505050505081526020016001820154815260200160028201805480602002602001604051908101604052809291908181526020018280548015610fec57602002820191906000526020600020905b8160009054906101000a900473ffffffffffffffffffffffffffffffffffffffff1673ffffffffffffffffffffffffffffffffffffffff1681526020019060010190808311610fa2575b5050505050815260200160038201548152505081526020019060010190610ea8565b50505050905090565b60036020528060005260406000206000915090508060000160009054906101000a900460ff16905081565b6000808210158015611055575060075482105b611094576040517f08c379a000000000000000000000000000000000000000000000000000000000815260040161108b90611b9b565b60405180910390fd5b6000600283815481106110d0577f4e487b7100000000000000000000000000000000000000000000000000000000600052603260045260246000fd5b906000526020600020906004020160010154905080915050919050565b600042905090565b565b6060600054421015611140576040518060400160405280601681526020017f566f74696e6720686173206e6f7420737461727465640000000000000000000081525090506111c0565b600154421015611187576040518060400160405280601281526020017f566f74696e6720696e2070726f6772657373000000000000000000000000000081525090506111c0565b6040518060400160405280601081526020017f566f74696e672068617320656e6465640000000000000000000000000000000081525090505b90565b600281815481106111d357600080fd5b90600052602060002090600402016000915090508060000180546111f690611e4d565b80601f016020809104026020016040519081016040528092919081815260200182805461122290611e4d565b801561126f5780601f106112445761010080835404028352916020019161126f565b820191906000526020600020905b81548152906001019060200180831161125257829003601f168201915b5050505050908060010154908060030154905083565b6000600460009054906101000a900473ffffffffffffffffffffffffffffffffffffffff16905090565b6040518060800160405280606081526020016000815260200160608152602001600081525090565b8280546112e390611e4d565b90600052602060002090601f016020900481019282611305576000855561134c565b82601f1061131e57805160ff191683800117855561134c565b8280016001018555821561134c579182015b8281111561134b578251825591602001919060010190611330565b5b50905061135991906113e7565b5090565b8280548282559060005260206000209081019282156113d6579160200282015b828111156113d55782518260006101000a81548173ffffffffffffffffffffffffffffffffffffffff021916908373ffffffffffffffffffffffffffffffffffffffff1602179055509160200191906001019061137d565b5b5090506113e391906113e7565b5090565b5b808211156114005760008160009055506001016113e8565b5090565b600061141761141284611c67565b611c36565b9050808382526020820190508260005b85811015611457578135850161143d88826114de565b845260208401935060208301925050600181019050611427565b5050509392505050565b600061147461146f84611c93565b611c36565b90508281526020810184848401111561148c57600080fd5b611497848285611e0b565b509392505050565b6000813590506114ae81611fc6565b92915050565b600082601f8301126114c557600080fd5b81356114d5848260208601611404565b91505092915050565b600082601f8301126114ef57600080fd5b81356114ff848260208601611461565b91505092915050565b60008135905061151781611fdd565b92915050565b60006020828403121561152f57600080fd5b600061153d8482850161149f565b91505092915050565b60008060006060848603121561155b57600080fd5b600084013567ffffffffffffffff81111561157557600080fd5b611581868287016114b4565b935050602061159286828701611508565b92505060406115a386828701611508565b9150509250925092565b6000602082840312156115bf57600080fd5b60006115cd84828501611508565b91505092915050565b60006115e28383611602565b60208301905092915050565b60006115fa83836119e6565b905092915050565b61160b81611dc3565b82525050565b61161a81611dc3565b82525050565b600061162b82611ce3565b6116358185611d1e565b935061164083611cc3565b8060005b8381101561167157815161165888826115d6565b975061166383611d04565b925050600181019050611644565b5085935050505092915050565b600061168982611cee565b6116938185611d2f565b9350836020820285016116a585611cd3565b8060005b858110156116e157848403895281516116c285826115ee565b94506116cd83611d11565b925060208a019950506001810190506116a9565b50829750879550505050505092915050565b6116fc81611dd5565b82525050565b600061170d82611cf9565b6117178185611d4b565b9350611727818560208601611e1a565b61173081611fb5565b840191505092915050565b600061174682611cf9565b6117508185611d5c565b9350611760818560208601611e1a565b61176981611fb5565b840191505092915050565b6000611781603583611d5c565b91507f726571756972656420746f2073656e64203e20302e3120657468657220746f2060008301527f72657761726420612072616e646f6d20766f74657200000000000000000000006020830152604082019050919050565b60006117e7601b83611d5c565b91507f566f74696e6720706572696f6420686173204e4f5420656e64656400000000006000830152602082019050919050565b6000611827602983611d5c565b91507f566f74657220616c72656164792075736564206869732f68657220726967687460008301527f20746f20766f74652e00000000000000000000000000000000000000000000006020830152604082019050919050565b600061188d602e83611d5c565b91507f766f7465206973206f757473696465207468652072616e6765206f662061766160008301527f696c61626c652063686f696365730000000000000000000000000000000000006020830152604082019050919050565b60006118f3600083611d40565b9150600082019050919050565b600061190d601583611d5c565b91507f52657761726420302e3120455448204661696c656400000000000000000000006000830152602082019050919050565b600061194d601783611d5c565b91507f566f74696e6720706572696f642068617320656e6465640000000000000000006000830152602082019050919050565b600061198d602183611d5c565b91507f566f74696e6720706572696f6420686173206e6f74207374617274656420796560008301527f74000000000000000000000000000000000000000000000000000000000000006020830152604082019050919050565b60006080830160008301518482036000860152611a038282611702565b9150506020830151611a186020860182611a50565b5060408301518482036040860152611a308282611620565b9150506060830151611a456060860182611a50565b508091505092915050565b611a5981611e01565b82525050565b611a6881611e01565b82525050565b6000611a79826118e6565b9150819050919050565b6000602082019050611a986000830184611611565b92915050565b60006020820190508181036000830152611ab8818461167e565b905092915050565b6000602082019050611ad560008301846116f3565b92915050565b60006020820190508181036000830152611af5818461173b565b905092915050565b60006060820190508181036000830152611b17818661173b565b9050611b266020830185611a5f565b611b336040830184611a5f565b949350505050565b60006020820190508181036000830152611b5481611774565b9050919050565b60006020820190508181036000830152611b74816117da565b9050919050565b60006020820190508181036000830152611b948161181a565b9050919050565b60006020820190508181036000830152611bb481611880565b9050919050565b60006020820190508181036000830152611bd481611900565b9050919050565b60006020820190508181036000830152611bf481611940565b9050919050565b60006020820190508181036000830152611c1481611980565b9050919050565b6000602082019050611c306000830184611a5f565b92915050565b6000604051905081810181811067ffffffffffffffff82111715611c5d57611c5c611f86565b5b8060405250919050565b600067ffffffffffffffff821115611c8257611c81611f86565b5b602082029050602081019050919050565b600067ffffffffffffffff821115611cae57611cad611f86565b5b601f19601f8301169050602081019050919050565b6000819050602082019050919050565b6000819050602082019050919050565b600081519050919050565b600081519050919050565b600081519050919050565b6000602082019050919050565b6000602082019050919050565b600082825260208201905092915050565b600082825260208201905092915050565b600081905092915050565b600082825260208201905092915050565b600082825260208201905092915050565b6000611d7882611e01565b9150611d8383611e01565b9250827fffffffffffffffffffffffffffffffffffffffffffffffffffffffffffffffff03821115611db857611db7611ef9565b5b828201905092915050565b6000611dce82611de1565b9050919050565b60008115159050919050565b600073ffffffffffffffffffffffffffffffffffffffff82169050919050565b6000819050919050565b82818337600083830152505050565b60005b83811015611e38578082015181840152602081019050611e1d565b83811115611e47576000848401525b50505050565b60006002820490506001821680611e6557607f821691505b60208210811415611e7957611e78611f57565b5b50919050565b6000611e8a82611e01565b91507fffffffffffffffffffffffffffffffffffffffffffffffffffffffffffffffff821415611ebd57611ebc611ef9565b5b600182019050919050565b6000611ed382611e01565b9150611ede83611e01565b925082611eee57611eed611f28565b5b828206905092915050565b7f4e487b7100000000000000000000000000000000000000000000000000000000600052601160045260246000fd5b7f4e487b7100000000000000000000000000000000000000000000000000000000600052601260045260246000fd5b7f4e487b7100000000000000000000000000000000000000000000000000000000600052602260045260246000fd5b7f4e487b7100000000000000000000000000000000000000000000000000000000600052604160045260246000fd5b6000601f19601f8301169050919050565b611fcf81611dc3565b8114611fda57600080fd5b50565b611fe681611e01565b8114611ff157600080fd5b5056fea26469706673582212203dd24425e35d78f439e7b6c2c4e149ea41110927768591850570bd051ebd135364736f6c63430008000033",
  "immutableReferences": {},
  "source": "pragma solidity 0.8.0;\n\ncontract VotingSystem {\n\n    struct Choice {\n        string name;\n        uint voteCounts;\n        address[] voters;\n        uint votersCounts;\n    }\n\n    struct Voter {\n        bool voted;\n    }\n\n    uint256 startTime; //how many secs after contract is deployed before voting starts\n    uint256 endTime; //counts after voting has started\n\n    Choice[] public choices; //store voters input\n    mapping (address => Voter) public voters;\n\n    address rewarded_address;\n    address[] voted_address;\n    bool voting_period_ended = false;\n    uint num_of_choices = 0;\n\n    modifier allowedToVote\n    {\n        require (block.timestamp >= startTime, \"Voting period has not started yet\");\n        require (block.timestamp < endTime, \"Voting period has ended\");\n        require (voters[msg.sender].voted == false, \"Voter already used his/her right to vote.\");\n        _;\n    }\n\n    constructor(string[] memory _choices, uint256 _timeBeforeVotingStartInSecs, uint256 _votingDurationInSecs)\n    {\n        for (uint idx = 0; idx < _choices.length; idx++)\n        {\n            Choice memory init;\n            init.name = _choices[idx];\n            init.voteCounts = 0;\n            init.votersCounts = 0;\n            choices.push(init);\n            num_of_choices++;\n        }\n        startTime = block.timestamp + _timeBeforeVotingStartInSecs;\n        endTime = startTime + _votingDurationInSecs;\n        voting_period_ended = false;\n        rewarded_address = address(0);\n    }\n\n    function createNewElection (string[] memory _choices, uint256 _timeBeforeVotingStartInSecs, uint256 _votingDurationInSecs) public payable\n    {\n        require(msg.value > 0.1 ether, \"required to send > 0.1 ether to reward a random voter\"); // to reward a random voter after voting period has ended\n        require (block.timestamp > endTime, \"Voting period has NOT ended\");\n        rewardRandomVoterFromHighestVote();\n        num_of_choices = 0;\n        \n        for (uint idx = 0; idx < _choices.length; idx++)\n        {\n            Choice memory init;\n            init.name = _choices[idx];\n            init.voteCounts = 0;\n            init.votersCounts = 0;\n            if (idx < choices.length)\n            {\n                choices[idx] = init;\n            }\n            else\n            {\n                choices.push(init);\n            }\n            num_of_choices++;\n        }\n        \n        startTime = block.timestamp + _timeBeforeVotingStartInSecs;\n        endTime = startTime + _votingDurationInSecs;\n        voting_period_ended = false;\n        rewarded_address = address(0);\n    }\n\n    function vote (uint _choicesIdx) public allowedToVote\n    {\n        require(_choicesIdx >= 0 && _choicesIdx < num_of_choices, \"vote is outside the range of available choices\");\n        voters[msg.sender].voted = true;\n        choices[_choicesIdx].voteCounts += 1;\n        \n        if (choices[_choicesIdx].votersCounts < choices[_choicesIdx].voters.length)\n        {\n            //re-use the same allocated memory for storing voters address\n            choices[_choicesIdx].voters[choices[_choicesIdx].votersCounts] = msg.sender;\n        }\n        else\n        {\n            choices[_choicesIdx].voters.push(msg.sender);\n        }\n\n        choices[_choicesIdx].votersCounts += 1;\n        voted_address.push(msg.sender);\n    }\n\n    function getNumberOfVote (uint _choicesIdx) public view returns (uint)\n    {\n        require(_choicesIdx >= 0 && _choicesIdx < num_of_choices, \"vote is outside the range of available choices\");\n        uint counts = choices[_choicesIdx].voteCounts;\n        return counts;\n    }\n\n    function getRewardedAddress() public view returns (address) {\n        return rewarded_address;\n    }\n\n    function deposit () public payable\n    {\n\n    }\n\n    function rewardRandomVoterFromHighestVote () public\n    {\n        if (block.timestamp > endTime && !voting_period_ended) \n        { \n            voting_period_ended = true;\n            uint winningChoice = findHighestVoteIdx();\n            uint randomVoterIdx = block.timestamp % choices[winningChoice].votersCounts; \n            rewarded_address = choices[winningChoice].voters[randomVoterIdx];\n            (bool success, ) = rewarded_address.call{value:0.1 ether}(\"\");\n            require( success, \"Reward 0.1 ETH Failed\");\n        }\n    }\n\n    function findHighestVoteIdx() public view returns (uint)\n    {\n        uint highestVoteIdx = 0;\n        for (uint idx = 1; idx < num_of_choices; idx++) {\n            if (choices[idx].voteCounts > choices[highestVoteIdx].voteCounts) \n            {\n                highestVoteIdx = idx;\n            }\n        }\n        return highestVoteIdx;\n    }\n\n    function getChoices () public view returns (Choice[] memory)\n    {\n        return choices;\n    }\n\n    function getVotingState() public returns (string memory)\n    {\n        if (block.timestamp < startTime)\n        {\n            return \"Voting has not started\";\n        }\n        else if (block.timestamp < endTime)\n        {\n            return \"Voting in progress\";\n        }\n        else \n        {\n            return \"Voting has ended\";\n        }\n    }\n\n    function getBlockTimeStamp() public returns (uint)\n    {\n        return block.timestamp;\n    }\n\n    function getBlockTimeStamp2() public view returns (uint)\n    {\n        return block.timestamp;\n    }\n}",
  "sourcePath": "/Users/erwinwijaya/VotingSystem/contracts/VotingSystem.sol",
  "compiler": {
    "name": "solc",
    "version": "0.8.0+commit.c7dfd78e.Emscripten.clang"
  },
  "schemaVersion": "3.4.3",
  "updatedAt": "2021-12-08T05:01:49.751Z",
  "networkType": "ethereum",
  "devdoc": {
    "kind": "dev",
    "methods": {},
    "version": 1
  },
  "userdoc": {
    "kind": "user",
    "methods": {},
    "version": 1
  }
}