{
  "contractName": "VotingSystem",
  "abi": [
    {
      "inputs": [
        {
          "internalType": "string[]",
          "name": "_choices",
          "type": "string[]"
        },
        {
          "internalType": "uint256",
          "name": "_timeBeforeVotingStartInSecs",
          "type": "uint256"
        },
        {
          "internalType": "uint256",
          "name": "_votingDurationInSecs",
          "type": "uint256"
        }
      ],
      "stateMutability": "nonpayable",
      "type": "constructor"
    },
    {
      "inputs": [
        {
          "internalType": "uint256",
          "name": "",
          "type": "uint256"
        }
      ],
      "name": "choices",
      "outputs": [
        {
          "internalType": "string",
          "name": "name",
          "type": "string"
        },
        {
          "internalType": "uint256",
          "name": "voteCounts",
          "type": "uint256"
        }
      ],
      "stateMutability": "view",
      "type": "function",
      "constant": true
    },
    {
      "inputs": [
        {
          "internalType": "address",
          "name": "",
          "type": "address"
        }
      ],
      "name": "voters",
      "outputs": [
        {
          "internalType": "bool",
          "name": "voted",
          "type": "bool"
        }
      ],
      "stateMutability": "view",
      "type": "function",
      "constant": true
    },
    {
      "inputs": [
        {
          "internalType": "uint256",
          "name": "_choicesIdx",
          "type": "uint256"
        }
      ],
      "name": "vote",
      "outputs": [],
      "stateMutability": "nonpayable",
      "type": "function"
    },
    {
      "inputs": [
        {
          "internalType": "uint256",
          "name": "_choicesIdx",
          "type": "uint256"
        }
      ],
      "name": "getNumberOfVote",
      "outputs": [
        {
          "internalType": "uint256",
          "name": "",
          "type": "uint256"
        }
      ],
      "stateMutability": "view",
      "type": "function",
      "constant": true
    },
    {
      "inputs": [],
      "name": "getChoices",
      "outputs": [
        {
          "components": [
            {
              "internalType": "string",
              "name": "name",
              "type": "string"
            },
            {
              "internalType": "uint256",
              "name": "voteCounts",
              "type": "uint256"
            },
            {
              "internalType": "address[]",
              "name": "voters",
              "type": "address[]"
            }
          ],
          "internalType": "struct VotingSystem.Choice[]",
          "name": "",
          "type": "tuple[]"
        }
      ],
      "stateMutability": "view",
      "type": "function",
      "constant": true
    },
    {
      "inputs": [],
      "name": "getVotingState",
      "outputs": [
        {
          "internalType": "string",
          "name": "",
          "type": "string"
        }
      ],
      "stateMutability": "view",
      "type": "function",
      "constant": true
    },
    {
      "inputs": [],
      "name": "getBlockTimeStamp",
      "outputs": [
        {
          "internalType": "uint256",
          "name": "",
          "type": "uint256"
        }
      ],
      "stateMutability": "nonpayable",
      "type": "function"
    },
    {
      "inputs": [],
      "name": "getBlockTimeStamp2",
      "outputs": [
        {
          "internalType": "uint256",
          "name": "",
          "type": "uint256"
        }
      ],
      "stateMutability": "view",
      "type": "function",
      "constant": true
    }
  ],
  "bytecode": "0x60806040523480156200001157600080fd5b5060405162001680380380620016808339818101604052810190620000379190620003df565b60005b835181101562000130576200004e62000164565b84828151811062000088577f4e487b7100000000000000000000000000000000000000000000000000000000600052603260045260246000fd5b60200260200101518160000181905250600081602001818152505060028190806001815401808255809150506001900390600052602060002090600302016000909190919091506000820151816000019080519060200190620000ed92919062000185565b506020820151816001015560408201518160020190805190602001906200011692919062000216565b5050505080806200012790620005b7565b9150506200003a565b5081426200013f9190620004e4565b60008190555080600054620001559190620004e4565b600181905550505050620006ac565b60405180606001604052806060815260200160008152602001606081525090565b828054620001939062000581565b90600052602060002090601f016020900481019282620001b7576000855562000203565b82601f10620001d257805160ff191683800117855562000203565b8280016001018555821562000203579182015b8281111562000202578251825591602001919060010190620001e5565b5b509050620002129190620002a5565b5090565b82805482825590600052602060002090810192821562000292579160200282015b82811115620002915782518260006101000a81548173ffffffffffffffffffffffffffffffffffffffff021916908373ffffffffffffffffffffffffffffffffffffffff1602179055509160200191906001019062000237565b5b509050620002a19190620002a5565b5090565b5b80821115620002c0576000816000905550600101620002a6565b5090565b6000620002db620002d58462000482565b6200044e565b9050808382526020820190508260005b858110156200031f57815185016200030488826200039b565b845260208401935060208301925050600181019050620002eb565b5050509392505050565b6000620003406200033a84620004b1565b6200044e565b9050828152602081018484840111156200035957600080fd5b620003668482856200054b565b509392505050565b600082601f8301126200038057600080fd5b815162000392848260208601620002c4565b91505092915050565b600082601f830112620003ad57600080fd5b8151620003bf84826020860162000329565b91505092915050565b600081519050620003d98162000692565b92915050565b600080600060608486031215620003f557600080fd5b600084015167ffffffffffffffff8111156200041057600080fd5b6200041e868287016200036e565b93505060206200043186828701620003c8565b92505060406200044486828701620003c8565b9150509250925092565b6000604051905081810181811067ffffffffffffffff8211171562000478576200047762000663565b5b8060405250919050565b600067ffffffffffffffff821115620004a0576200049f62000663565b5b602082029050602081019050919050565b600067ffffffffffffffff821115620004cf57620004ce62000663565b5b601f19601f8301169050602081019050919050565b6000620004f18262000541565b9150620004fe8362000541565b9250827fffffffffffffffffffffffffffffffffffffffffffffffffffffffffffffffff0382111562000536576200053562000605565b5b828201905092915050565b6000819050919050565b60005b838110156200056b5780820151818401526020810190506200054e565b838111156200057b576000848401525b50505050565b600060028204905060018216806200059a57607f821691505b60208210811415620005b157620005b062000634565b5b50919050565b6000620005c48262000541565b91507fffffffffffffffffffffffffffffffffffffffffffffffffffffffffffffffff821415620005fa57620005f962000605565b5b600182019050919050565b7f4e487b7100000000000000000000000000000000000000000000000000000000600052601160045260246000fd5b7f4e487b7100000000000000000000000000000000000000000000000000000000600052602260045260246000fd5b7f4e487b7100000000000000000000000000000000000000000000000000000000600052604160045260246000fd5b6200069d8162000541565b8114620006a957600080fd5b50565b610fc480620006bc6000396000f3fe608060405234801561001057600080fd5b50600436106100885760003560e01c8063acb739591161005b578063acb7395914610115578063ca49a54314610145578063e9c2e17f14610163578063f6fd7fde1461018157610088565b80630121b93f1461008d57806312db1ac4146100a957806398c81bbf146100c7578063a3ec138d146100e5575b600080fd5b6100a760048036038101906100a29190610886565b6101b2565b005b6100b1610492565b6040516100be9190610d34565b60405180910390f35b6100cf61049a565b6040516100dc9190610c25565b60405180910390f35b6100ff60048036038101906100fa919061085d565b610623565b60405161010c9190610c47565b60405180910390f35b61012f600480360381019061012a9190610886565b61064e565b60405161013c9190610d34565b60405180910390f35b61014d6106a3565b60405161015a9190610d34565b60405180910390f35b61016b6106ab565b6040516101789190610c62565b60405180910390f35b61019b60048036038101906101969190610886565b610777565b6040516101a9929190610c84565b60405180910390f35b6000544210156101f7576040517f08c379a00000000000000000000000000000000000000000000000000000000081526004016101ee90610d14565b60405180910390fd5b600154421061023b576040517f08c379a000000000000000000000000000000000000000000000000000000000815260040161023290610cf4565b60405180910390fd5b60001515600360003373ffffffffffffffffffffffffffffffffffffffff1673ffffffffffffffffffffffffffffffffffffffff16815260200190815260200160002060000160009054906101000a900460ff161515146102d1576040517f08c379a00000000000000000000000000000000000000000000000000000000081526004016102c890610cb4565b60405180910390fd5b600081101580156102e6575060028054905081105b610325576040517f08c379a000000000000000000000000000000000000000000000000000000000815260040161031c90610cd4565b60405180910390fd5b6001600360003373ffffffffffffffffffffffffffffffffffffffff1673ffffffffffffffffffffffffffffffffffffffff16815260200190815260200160002060000160006101000a81548160ff0219169083151502179055506001600282815481106103bc577f4e487b7100000000000000000000000000000000000000000000000000000000600052603260045260246000fd5b906000526020600020906003020160010160008282546103dc9190610dee565b925050819055506002818154811061041d577f4e487b7100000000000000000000000000000000000000000000000000000000600052603260045260246000fd5b9060005260206000209060030201600201339080600181540180825580915050600190039060005260206000200160009091909190916101000a81548173ffffffffffffffffffffffffffffffffffffffff021916908373ffffffffffffffffffffffffffffffffffffffff16021790555050565b600042905090565b60606002805480602002602001604051908101604052809291908181526020016000905b8282101561061a57838290600052602060002090600302016040518060600160405290816000820180546104f190610ebf565b80601f016020809104026020016040519081016040528092919081815260200182805461051d90610ebf565b801561056a5780601f1061053f5761010080835404028352916020019161056a565b820191906000526020600020905b81548152906001019060200180831161054d57829003601f168201915b50505050508152602001600182015481526020016002820180548060200260200160405190810160405280929190818152602001828054801561060257602002820191906000526020600020905b8160009054906101000a900473ffffffffffffffffffffffffffffffffffffffff1673ffffffffffffffffffffffffffffffffffffffff16815260200190600101908083116105b8575b505050505081525050815260200190600101906104be565b50505050905090565b60036020528060005260406000206000915090508060000160009054906101000a900460ff16905081565b60006002828154811061068a577f4e487b7100000000000000000000000000000000000000000000000000000000600052603260045260246000fd5b9060005260206000209060030201600101549050919050565b600042905090565b60606000544210156106f4576040518060400160405280601681526020017f566f74696e6720686173206e6f742073746172746564000000000000000000008152509050610774565b60015442101561073b576040518060400160405280601281526020017f566f74696e6720696e2070726f677265737300000000000000000000000000008152509050610774565b6040518060400160405280601081526020017f566f74696e672068617320656e6465640000000000000000000000000000000081525090505b90565b6002818154811061078757600080fd5b90600052602060002090600302016000915090508060000180546107aa90610ebf565b80601f01602080910402602001604051908101604052809291908181526020018280546107d690610ebf565b80156108235780601f106107f857610100808354040283529160200191610823565b820191906000526020600020905b81548152906001019060200180831161080657829003601f168201915b5050505050908060010154905082565b60008135905061084281610f60565b92915050565b60008135905061085781610f77565b92915050565b60006020828403121561086f57600080fd5b600061087d84828501610833565b91505092915050565b60006020828403121561089857600080fd5b60006108a684828501610848565b91505092915050565b60006108bb83836108db565b60208301905092915050565b60006108d38383610bb0565b905092915050565b6108e481610e44565b82525050565b60006108f582610d6f565b6108ff8185610daa565b935061090a83610d4f565b8060005b8381101561093b57815161092288826108af565b975061092d83610d90565b92505060018101905061090e565b5085935050505092915050565b600061095382610d7a565b61095d8185610dbb565b93508360208202850161096f85610d5f565b8060005b858110156109ab578484038952815161098c85826108c7565b945061099783610d9d565b925060208a01995050600181019050610973565b50829750879550505050505092915050565b6109c681610e56565b82525050565b60006109d782610d85565b6109e18185610dcc565b93506109f1818560208601610e8c565b6109fa81610f4f565b840191505092915050565b6000610a1082610d85565b610a1a8185610ddd565b9350610a2a818560208601610e8c565b610a3381610f4f565b840191505092915050565b6000610a4b602983610ddd565b91507f566f74657220616c72656164792075736564206869732f68657220726967687460008301527f20746f20766f74652e00000000000000000000000000000000000000000000006020830152604082019050919050565b6000610ab1602e83610ddd565b91507f766f7465206973206f757473696465207468652072616e6765206f662061766160008301527f696c61626c652063686f696365730000000000000000000000000000000000006020830152604082019050919050565b6000610b17601783610ddd565b91507f566f74696e6720706572696f642068617320656e6465640000000000000000006000830152602082019050919050565b6000610b57602183610ddd565b91507f566f74696e6720706572696f6420686173206e6f74207374617274656420796560008301527f74000000000000000000000000000000000000000000000000000000000000006020830152604082019050919050565b60006060830160008301518482036000860152610bcd82826109cc565b9150506020830151610be26020860182610c07565b5060408301518482036040860152610bfa82826108ea565b9150508091505092915050565b610c1081610e82565b82525050565b610c1f81610e82565b82525050565b60006020820190508181036000830152610c3f8184610948565b905092915050565b6000602082019050610c5c60008301846109bd565b92915050565b60006020820190508181036000830152610c7c8184610a05565b905092915050565b60006040820190508181036000830152610c9e8185610a05565b9050610cad6020830184610c16565b9392505050565b60006020820190508181036000830152610ccd81610a3e565b9050919050565b60006020820190508181036000830152610ced81610aa4565b9050919050565b60006020820190508181036000830152610d0d81610b0a565b9050919050565b60006020820190508181036000830152610d2d81610b4a565b9050919050565b6000602082019050610d496000830184610c16565b92915050565b6000819050602082019050919050565b6000819050602082019050919050565b600081519050919050565b600081519050919050565b600081519050919050565b6000602082019050919050565b6000602082019050919050565b600082825260208201905092915050565b600082825260208201905092915050565b600082825260208201905092915050565b600082825260208201905092915050565b6000610df982610e82565b9150610e0483610e82565b9250827fffffffffffffffffffffffffffffffffffffffffffffffffffffffffffffffff03821115610e3957610e38610ef1565b5b828201905092915050565b6000610e4f82610e62565b9050919050565b60008115159050919050565b600073ffffffffffffffffffffffffffffffffffffffff82169050919050565b6000819050919050565b60005b83811015610eaa578082015181840152602081019050610e8f565b83811115610eb9576000848401525b50505050565b60006002820490506001821680610ed757607f821691505b60208210811415610eeb57610eea610f20565b5b50919050565b7f4e487b7100000000000000000000000000000000000000000000000000000000600052601160045260246000fd5b7f4e487b7100000000000000000000000000000000000000000000000000000000600052602260045260246000fd5b6000601f19601f8301169050919050565b610f6981610e44565b8114610f7457600080fd5b50565b610f8081610e82565b8114610f8b57600080fd5b5056fea2646970667358221220fd9faa56f0056e5c254bba35f1acbdd35f28efa7ecba6c04fe1cba64c9085e4964736f6c63430008000033",
  "immutableReferences": {},
  "source": "pragma solidity 0.8.0;\n\ncontract VotingSystem {\n\n    struct Choice {\n        string name;\n        uint voteCounts;\n        address[] voters;\n    }\n\n    struct Voter {\n        bool voted;\n    }\n\n    uint256 startTime; //how many secs after contract is deployed before voting starts\n    uint256 endTime; //counts after voting has started\n\n    Choice[] public choices; //store voters input\n    mapping (address => Voter) public voters;\n\n    modifier allowedToVote\n    {\n        require (block.timestamp >= startTime, \"Voting period has not started yet\");\n        require (block.timestamp < endTime, \"Voting period has ended\");\n        require (voters[msg.sender].voted == false, \"Voter already used his/her right to vote.\");\n        _;\n    }\n\n    constructor(string[] memory _choices, uint256 _timeBeforeVotingStartInSecs, uint256 _votingDurationInSecs)\n    {\n        for (uint idx = 0; idx < _choices.length; idx++)\n        {\n            Choice memory init;\n            init.name = _choices[idx];\n            init.voteCounts = 0;\n            choices.push(init);\n        }\n        startTime = block.timestamp + _timeBeforeVotingStartInSecs;\n        endTime = startTime + _votingDurationInSecs;\n    }\n\n    function vote (uint _choicesIdx) public allowedToVote\n    {\n        require(_choicesIdx >= 0 && _choicesIdx < choices.length, \"vote is outside the range of available choices\");\n        voters[msg.sender].voted = true;\n        choices[_choicesIdx].voteCounts += 1;\n        choices[_choicesIdx].voters.push(msg.sender);\n    }\n\n    function getNumberOfVote (uint _choicesIdx) public view returns (uint)\n    {\n        return choices[_choicesIdx].voteCounts;\n    }\n\n    function getChoices () public view returns (Choice[] memory)\n    {\n        return choices;\n    }\n\n    function getVotingState() public view returns (string memory)\n    {\n        if (block.timestamp < startTime)\n        {\n            return \"Voting has not started\";\n        }\n        else if (block.timestamp < endTime)\n        {\n            return \"Voting in progress\";\n        }\n        else \n        {\n            return \"Voting has ended\";\n        }\n    }\n\n    function getBlockTimeStamp() public returns (uint)\n    {\n        return block.timestamp;\n    }\n\n    function getBlockTimeStamp2() public view returns (uint)\n    {\n        return block.timestamp;\n    }\n}",
  "sourcePath": "/Users/erwinwijaya/VotingSystem/contracts/VotingSystem.sol",
  "compiler": {
    "name": "solc",
    "version": "0.8.0+commit.c7dfd78e.Emscripten.clang"
  },
  "schemaVersion": "3.4.3",
  "updatedAt": "2021-12-07T04:36:57.613Z",
  "networkType": "ethereum",
  "devdoc": {
    "kind": "dev",
    "methods": {},
    "version": 1
  },
  "userdoc": {
    "kind": "user",
    "methods": {},
    "version": 1
  }
}